:03000000020C4CA3
:0C0C4C00787FE4F6D8FD75817D020C93E2
:100DA900BCB4BDABBDF8C8EBB5F4B5E7C4A3CABDC7
:100DB9000D0A0025640D0A004448543131B2E9D1C5
:0F0DC900AFCAA7B0DC0D0A00252E33660D0A0055
:100A7A00120F1A120EAB120F297FE87E031200031F
:100A8A007FF47E011200037BFF7A0D79A9120E53BF
:100A9A007587027FF47E01120003120BB0EF640126
:100AAA0070407557FF75580D7559BC85785A857908
:100ABA005BFB7A0079361206677557FF75580D7514
:100ACA0059BC85765A85775B7B007A007940120695
:100ADA00677B007A007936120E537B007A007940E0
:100AEA0080067BFF7A0D79C1120E537FF47E0112C4
:100AFA000003D2AD7557FF75580D7559D1857D5DC7
:100B0A00857C5C857B5B857A5A7B007A00794A1200
:100B1A0006677B007A00794A120E53C2AD7FF47ED3
:100B2A00011200037F01120EE77F10120EE77FB455
:100B3A007E00120003120D73751400851615E51553
:100B4A00FE7C00E42517F515EC3EF514FCAD1512F4
:100B5A0002527B9A7A997999783F1201378F138ECC
:100B6A00128D118C107557FF75580D7559D18F5DFF
:100B7A008E5C8D5B8C5A7B007A0079221206677B29
:100B8A00007A007922120E53E4FFFEFD7C40AB7D11
:100B9A00AA7CA97BA87A12002EE4FBFA79C07840D5
:060BAA001201D4020A8AC8
:10000300E4FDFCC3ED9FEC9E5011000079167B804C
:0B001300DBFED9FC0DBD00010C80E8F5
:01001E0022BF
:100E7600E4FDFCEFFB3395E0FAC3ED9BEC9A500BD7
:0B0E86007E03DEFE0DBD00010C80E8C5
:010E9100223E
:100EAB00759850438E01438E0475D7D075D6FF438A
:070EBB008E10D2ACD2AF2271
:060E53008B548A558956FC
:100E5900E4FFAB54AA55A9568F8275830012058801
:0C0E6900600AF5993099FDC2990F80E6EF
:010E7500225A
:03002300020F3693
:060F3600309802C298325F
:060E9200047A00000000DC
:0F0F1A00759D20E4F5BD75BC8D7F64FE0200035C
:03002B00020D3291
:100D3200C0E0C0F0C083C082C0D075D00875BC00CE
:100D4200ACBDE41202577B337A3379A378401200A8
:100D52002EE4FBFA798078431201378F7D8E7C8DE9
:100D62007B8C7A75BC8DD0D0D082D083D0F0D0E08D
:010D7200324E
:080E9800027800000276000060
:100CD800E4F558757501F559E55825E0F558E4F53A
:100CE8005720B60AAF570557EFC394FE40F3E557B0
:100CF800C394FE400280227F1E120E7630B61F0576
:100D08005830B60EAF570557EFC394FE5004D2B60D
:100D180080EFE557C394FE4005E4F575FF220559B9
:090D2800E559C3940840B1AF582D
:010D3100229F
:100BB000E4F554F555F556C2B67F14FE120003D283
:100BC000B67F28120E7630B6037F002220B60AAF19
:100BD000560556EFC394FE40F3E556C394FE400518
:100BE000D2B67F0022E4F556D2B630B60AAF56052B
:100BF00056EFC394FE40F3E556C394FE4007D2B6C9
:100C0000E4F556FF22E4F554120CD874702554F81C
:100C1000A607E5757004D2B6FF22E5546404600AA5
:100C200074702554F8E62555F5550554E554C394DC
:100C30000540D5E555B574117576008570777578E2
:0B0C400000857279D2B67F01227F0090
:010C4B002286
:0A0EA000021400000410000000001E
:100EC200D294D2927F05120E76C2947F05120E76CC
:030ED200C29222A7
:100F0A00C294D2927F05120E76D2947F05020E7693
:100ED500A2009294D2927F05120E76C2927F0502ED
:020EE5000E7687
:100EF900D2927F05120E76A294C2927F05120E76C7
:010F090022C5
:020E05008F5507
:100E0700E4F556E55525E0F5559294D2927F051203
:100E17000E76C2927F05120E760556E556C39408E4
:050E270040E1020EF99C
:100DD800E4F556D294F555E55625E0F556D2927FBE
:100DE80005120E76A294E4334256C2927F05120E83
:0C0DF800760555E555C3940840DDAF5664
:010E040022CB
:100EE7008F54120EC27F46120E05AF54120E050222
:020EF7000F0AE0
:100D7300120EC27F47120E05E4F554120DD87416F5
:100D83002554F8A607E554B40304D2008002C20038
:100D9300120ED50554E554C3940340DF120F0A7FA6
:060DA300057E00020003C2
:0D0F29005391E35394E3C2937F01020EE75E
:10002E00EC4D6011E8497017ED33EC3304600DE4CC
:10003E00FCFFFEFD22E933E8330470F80202C01221
:10004E00028B58046009E4CC248150062850090222
:10005E0002CA2840030202C7C0E0EB4A7044B980CE
:10006E0006D0E0FB0202B6EF4E701CBD8008EBFF1F
:10007E00EAFEE9FD80EBE98DF0A4FEE5F002011742
:10008E00E9CDF9EAFEEBFFEF89F0A4FCE5F0CE89AD
:10009E00F0A42EFFE435F0CD89F0A42DFEE435F06A
:1000AE008067EF4E7005BD80D780C3EF8BF0A4AC98
:1000BE00F0EE8BF0A42CFCE435F0F8EF8AF0A42CD3
:1000CE00E5F038FCE433CB8DF0A42CFCE5F03BF8E6
:1000DE00EE8AF0A42CFCE5F038F8E433CF89F0A4D6
:1000EE002CFCE5F038CF3400CE89F0A42FFFE5F0DC
:1000FE003EFEE433C98DF0A42EFEE5F039CD8AF034
:10010E00A42FFFE5F03EFEE43DFD33D0E0FB5007AB
:10011E000BBB000F0202CAEC2CFCEF33FFEE33FEDA
:06012E00ED33FD0202A208
:100134000202CAEC5D046005E8590470030202C0BF
:1001440012028B580460F6EC4860F2EC7004FDFE79
:10015400FF22C860DB2481C85009C398600250069E
:100164000202C79850CAF582E9294B4A7005AB824E
:100174000202B675F0007C1A7880C3EF9BEE9AED0C
:1001840099400DC3EF9BFFEE9AFEED99FDE842F016
:10019400DC23ACF0D0E0FFD0E0FED0E0FDAB822069
:1001A400E7101BEB60BAEC2CFCEF33FFEE33FEEDF3
:1001B40033FD0202A2E803F830E705C0F075F00051
:1001C400EF2FFFEE33FEED33FD40B830E7C280AAD7
:1001D40074F8CC6480CCC86480C8F58204604FC3D2
:1001E400EB9FF5F0EA9E42F0E99D42F0E89C45F071
:1001F400603C501DE5825FFFE582D313CB5BCBF4FB
:100204002B5582FB50280ABA002409B90020088023
:100214001DE5825BFBE582D313CF5FCFF4C3132FBD
:100224005582FF50090EBE00050DBD00010CC3EB45
:100234009FF5F0EA9E42F0E99D42F0E89C45F060AB
:0902440007CC4820E701B3EC22CD
:10024D0075F020800E75F010800575F0087D007E2C
:10025D00007F003392D530D5031205C7EC33401023
:10026D00EF33FFEE33FEED33FDEC33FCD5F0ED2235
:0E027D00E5F0247EA2D513CC92E7CDCEFF2271
:10060B00E56B2457F8E6056B2278543007027857D0
:10061B00E475F0011205D502056F2000EB7F2ED299
:10062B00008018EF540F2490D43440D4FF30040BC7
:10063B00EF24BFB41A0050032461FFE56C60021570
:10064B006C056FE56F7002056E30070D7854E4751D
:10065B00F0011205D5EF0205B5020E2C7403D2077B
:10066B008003E4C207F56B8B548A558956E4F56C0D
:10067B00F56EF56FE56C60077F2012064680F57509
:10068B006DFFC201C200C202C203C205C206C2088C
:10069B00120614FF700D3007057F00120657AF6F5F
:1006AB00AE6E22B4255FC2D5C204120614FF24D04D
:1006BB00B40A00501A75F00A786C30D50508B6FFED
:1006CB000106C6A426F620D5047002D20380D924D5
:1006DB00CFB41A00EF5004C2E5D204020944D20190
:1006EB0080C6D20080C0D20280BCD2D580BAD205DF
:1006FB0080B47F201206462002077401B56C0040BF
:10070B00F112060BFF12064602067FD208D20680B4
:10071B009512060BFB12060BFA12060BF94A4B70DD
:10072B0006793B7A0A7BFF20022EE56C602A7E005D
:10073B008E8275830012058860060EEE656D70F073
:10074B00C2D5EBC0E0EAC0E0E9C0E0EE1209A4D0EC
:10075B00E0F9D0E0FAD0E0FB12056FFF60AAEBC026
:10076B00E0EAC0E0E9C0E0120646D0E02401F9D08F
:10077B00E03400FAD0E0FBE56D0460DCD56DD98088
:10078B0087D20280A212098760F7E56D700104120F
:10079B0002D5A96D600DE56D600914F56D120A2E79
:1007AB00EF60F3EA30E702F404C3995077EAF425DB
:1007BB006D0430E701E404F56D800D12098760C10B
:1007CB00EA056D256D1202D5EA786AF630E701E489
:1007DB00256D04D56D04200501141209A4E4C0E0B5
:1007EB00120A2E786AE6601320E70714F612062E1B
:1007FB00802204F6D0E014C0E07F0012062EE56DD7
:10080B006007120625156D800B300503120625D0E7
:10081B00E002067FD0E00480C512098760A0E56D79
:10082B00041202D5786AEAF6E56D20050260010430
:05083B0024041209A4D1
:1008400074FF04C0E0120A2E12062EE56D20050288
:100850006003120625D0E0B56DE87F4512063878B2
:100860006AE67F2B30E7047F2DF404C0E0120646D1
:10087000D0E075F00A84C0F012062FD0E012062FE7
:1008800002067F791080027908C206C2088008D269
:10089000D5790A8004790AC2D5E56D047002F56D38
:1008A000E4FAFDFEFF12060BFC7B08200113120682
:1008B0000BFD7B1030000A12060BFE12060BFF7BAD
:1008C00020EC3382D592D55013C3E43000069FFF4D
:1008D000E49EFEE42001039DFDE49CFCE4CBF8C211
:1008E00001EC700CCFCECDCCE824F8F870F3801773
:1008F000C3EF33FFEE33FEED33FDEC33FCEB33FBA4
:10090000994002FB0FD8E9EB300105F8D0E0C4486C
:10091000B201C0E00AEC4D4E4F78207B0070C2EA75
:10092000B56D0040BCC0E01209A6D0F0D0E02001B7
:1009300004C4C0E0C4B201C0F012062FD0F0D5F05C
:10094000EB02067F1205E5071C5308835806ED4CA1
:1009500006E94208874F088F44088F490702430879
:10096000955507C6460824450790470A5B5006F18F
:100970002D06F52E07182B06F9230716200A442A00
:1009800006B14800000710E56DB4FF03756D06124F
:10099000060BFC12060BFD12060BFE12060BFF786F
:1009A00063020304790AA2D5200314300509B910A3
:1009B000020404B9080104A2D52006025001042053
:1009C00002689202B56C005034C0E07F20300319F9
:1009D0007F30A20272067205500F1209FDC202C2D8
:1009E00006C205C2087F30800F300503E9C0E0125F
:1009F0000646300503D0E0F9D0E0B56CCC300517E1
:100A00007F30B9100C1206467F583004077F78807B
:100A100003B908031206463002057F2D0206467F01
:100A2000202008F87F2B2006F322920280CF7F003F
:100A3000B4070050052463F8E6FF22286E756C6C3D
:100A40002900D20112060B3001F8C201786C30D5B2
:100A50000108F60206B12D5043495812060B240333
:100A6000B405004001E4900A5693120637743A1216
:0A0A70000637D203756C04020883F8
:10028B00E9D2E7C933E833F892D5EDD2E7CD33ECB9
:07029B0033FC5002B2D52232
:1002A200EC30E7100FBF000C0EBE00080DBD0004BD
:1002B2000BEB6014A2D5EB13FCED92E7FD2274FF69
:1002C200FCFDFEFF22E480F8A2D574FF13FC7D80C2
:0302D200E480EFD6
:1002D500F920E72824F950037907E4F42402FB18F0
:1002E500DBFDE624FB5014E9600DE4F618E604F6A0
:0F02F500B40A08E4F6D9F57401F60A22C2D5223C
:10030400ED33EC3392D5FA602AB4FF33EDC2E77BC8
:10031400FF60067A037929E4227A03793220D5042E
:100324007A03792D224E614E002B494E46002D4909
:100334004E4600E47A08F608DAFC7B00740722E8EB
:10034400C0E0ECC0E0EDC0E0EEC0E0EFC0E0EA7574
:10035400F010A4CAABF075F04DA42BFBE435F0FC0F
:10036400EA2410FAEB34C5FBEC34D9FCEDC2E7FF08
:1003740075F056A4F42411C5F0F434C58FF0A42A02
:10038400E5F03BE43CF620E71412052FD0E0FFD063
:10039400E0FED0E0FDD0E0FC1201378014F404123A
:1003A400052FD0E0FFD0E0FED0E0FDD0E0FC12004D
:1003B4002ED0E0F8E6FAEDD2E7CD33EC332482FB1D
:1003C400E4C3CF33CFCE33CECD33CD33DBF37B0792
:1003D40075F00A846004F6081B0AE5F0F6088FF04D
:1003E400740AA4FFACF08EF0740AA42CFEACF05096
:1003F400010C8DF0740AA42CFDE435F0F608DBDE64
:0304040074072258
:100407000202C0E86480F8E933E83360110460F061
:10041700ED33EC337009E8FCE9FDEAFEEBFF22045B
:1004270060DED3EB9FEA9EE99DE8C2E78CF0C2F756
:1004370095F0400CE8CCF8E9CDF9EACEFAEBCFFB22
:1004470012028B85D0F05804700320D5B3E80470EE
:10045700075002B2D50202CA92D5EC0460F7E4CC89
:10046700C0E0C398F8603B94186008400DD0E0FBEB
:100477000202A2E4FBFAC9FC8028E830E406E4C9DA
:10048700FBE4CAFCE830E305E4C9CACBFCE854073F
:100497006010F8C3E913F9EA13FAEB13FBEC13FC4A
:1004A700D8F130F52FC3E49CFCEF9BFFEE9AFEEDED
:1004B70099FDD0E0FBEF4E4D4C701222DB03020298
:1004C700C7EC2CFCEF33FFEE33FEED33FDED30E7E9
:1004D700EB0202A2EF2BFFEE3AFEED39FDD0E0FB77
:1004E70050130BBB00030202CAED13FDEE13FEEF20
:0804F70013FFEC13FC0202A24A
:1004FF003F8000004120000042C80000447A000005
:10050F00461C400047C35000497424004B18968086
:10051F004CBEBC205A0E1BCA6753C21C749DC5AE7D
:10052F00FB60065407601C232312055DEB543860F3
:10053F000912054912055812002EECF8EDF9EEFAE2
:10054F00EFCB22EB12055880F1543803241C900492
:10055F00FFFE93FC0EEE93FD0EEE930ECE93FF2255
:100C5800020A7AE493A3F8E493A34003F68001F22E
:100C680008DFF48029E493A3F85407240CC8C3339D
:100C7800C4540F4420C8834004F456800146F6DF6C
:100C8800E4800B0102040810204080900E92E47E5C
:100C9800019360BCA3FF543F30E509541FFEE49361
:100CA800A360010ECF54C025E060A840B8E493A328
:100CB800FAE493A3F8E493A3C8C582C8CAC583CA53
:100CC800F0A3C8C582C8CAC583CADFE9DEE780BE0B
:010EAA000047
:10056F00BB010689828A83E0225002E722BBFE028A
:09057F00E32289828A83E49322BD
:10058800BB010CE58229F582E5833AF583E0225028
:1005980006E92582F8E622BBFE06E92582F8E22272
:0D05A800E58229F582E5833AF583E493228C
:1005B500BB010689828A83F0225002F722BBFE0125
:0205C500F3221F
:0E05C700C3E49FFFE49EFEE49DFDE49CFC2245
:1005D500FAE6FB0808E6F925F0F618E6CA3AF62227
:1005E500D083D082F8E4937012740193700DA3A3A5
:1005F50093F8740193F5828883E4737402936860B9
:06060500EFA3A3A380DFB8
:100E2C00EFB40A07740D120E37740A309811A89992
:100E3C00B8130CC2983098FDA899C298B811F63026
:070E4C0099FDC299F59922FE
:00000001FF
