:03000000020CDD12
:0C0CDD00787FE4F6D8FD758121020D241B
:0C0FC60025640D0A00252E33660D0A007C
:100A8E00120FAA120F37120FB97FE87E031200035E
:100A9E007F647E00120003D2B2C2B37F647E001266
:100AAE0000037587027F647E00120003120C25EF8F
:100ABE0064017046785174FFF208740FF20874C620
:100ACE00F2783EE2FF08E27854CFF208EFF27BFEB6
:100ADE007A00791412067C785174FFF208740FF2C2
:100AEE000874C6F2783CE2FF08E27854CFF208EFC1
:100AFE00F27BFE7A00791E12067C7F647E00120065
:100B0E0003D2AD785174FFF208740FF20874CBF271
:100B1E007832E2FC08E2FD08E2FE08E2FF785412A9
:100B2E0005D57BFE7A00792812067CC2AD7F647EE5
:100B3E00001200037F01120F4E7F10120F4E7FB472
:100B4E007E00120003120E137846E2FF7844E4F2A0
:100B5E0008EFF2E2FE7847E27C002400FFEC3EFE56
:100B6E007844F208EFF2FDAC06EC1202527B9A7A50
:100B7E00997999783F12013778401205D5785174DA
:100B8E00FFF208740FF20874CBF27840E2FC08E230
:100B9E00FD08E2FE08E2FF78541205D57BFE7A00CE
:100BAE00790012067CC2B2C2B37F647E00120003CB
:100BBE00E4FF120FD27F02120FD27F18120FD27BD8
:100BCE00FE7A007914120E857BFE7A00791E120EC3
:100BDE00857BFE7A007928120E857BFE7A007900DD
:100BEE00120E85E4FFFEFD7C407832E2FB08E2F94E
:100BFE0008E2FA08E2CBF812002EE4FBFA79C0788C
:100C0E00401201D460025003020A9E758702C2ACE4
:070C1E00C2AFC2AD020A9E45
:10000300E4FDFCC3ED9FEC9E5011000079167B804C
:0B001300DBFED9FC0DBD00010C80E8F5
:01001E0022BF
:100F0200E4FDFCEFFB3395E0FAC3ED9BEC9A500B4A
:0B0F12007E03DEFE0DBD00010C80E838
:010F1D0022B1
:100F3700759850438E01438E0475D7D075D6FF43FD
:070F47008E10D2ACD2AF22E4
:0A0E8500784EEBF208EAF208E9F2F9
:100E8F00E4FF784EE2FB08E2FA08E2F98F827583FD
:100E9F0000120588600AF5993099FDC2990F80E21A
:010EAF002220
:080FD2008F993099FDC29922AC
:03002300020FDAEF
:060FDA00309802C29832BB
:060F1E0084320000000017
:0F0FAA00759D20E4F5BD75BC8D7F64FE020003CC
:03002B00020DD5EE
:100DD500C0E0C0F0C083C082C0D075D00875BC002B
:100DE500ACBDE41202577B337A3379A37840120005
:100DF5002EE4FBFA7980784312013778321205D553
:0E0E050075BC8DD0D0D082D083D0F0D0E0323A
:080F2400823E0000823C000047
:100D6900E47852F2783B04F2E47853F27852E225BF
:100D7900E0F2E418F220B60C7851E2FF04F2EFC376
:100D890094FE40F17851E2C394FE400280287F1E10
:100D9900120F0230B6267852E204F230B6107851BA
:100DA900E2FF04F2EFC394FE5004D2B680ED78510D
:100DB900E2C394FE4006E4783BF2FF227853E20452
:0B0DC900F2E2C3940840A57852E2FF5C
:010DD40022FC
:100C2500E4784EF208F208F2C2B67F14FE12000311
:100C3500D2B67F28120F0230B6037F002220B60CF1
:100C45007850E2FF04F2EFC394FE40F17850E2C31E
:100C550094FE4005D2B67F0022E47850F2D2B63039
:100C6500B60C7850E2FF04F2EFC394FE40F17850E1
:100C7500E2C394FE4006D2B6E4F2FF22E4784EF2D7
:100C8500120D69784EE2FE2436F8EFF2783BE270F9
:100C950004D2B6FF22EE6404600B74362EF8E2FF30
:100CA500784FE22FF2784EE204F2E2C3940540D089
:100CB500783AE2FF784FE2B5071B7836E2FF783CD9
:100CC500E4F208EFF27838E2FF783EE4F208EFF25A
:070CD500D2B67F01227F006F
:010CDC0022F5
:0A0F2C008244000084400000000031
:100F6400D294D2927F05120F02C2947F05120F020F
:030F7400C2922204
:100F9A00C294D2927F05120F02D2947F05020F02E9
:100F7700A2009294D2927F05120F02C2927F0502BD
:020F87000F0257
:100F8900D2927F05120F02A294C2927F05120F021C
:010F99002235
:040EB000784FEFF296
:100EB400E408F2784FE225E0F29294D2927F051290
:100EC4000F02C2927F05120F027850E204F2E2C3CD
:070ED400940840DF020F89C2
:100E4D00E47850F2D29418F27850E225E0F2D29282
:100E5D007F05120F027850E2FFA294E433FEEF4EAD
:100E6D00F2C2927F05120F02784FE204F2E2C394B0
:070E7D000840D57850E2FFA8
:010E8400224B
:100F4E00784EEFF2120F647F46120EB0784EE2FF2B
:060F5E00120EB0020F9A12
:100E1300120F647F47120EB0E4784EF2120E4D7833
:100E23004EE2FE2446F8EFF2EEB40304D200800251
:100E3300C200120F77784EE204F2E2C3940340DC5F
:0A0E4300120F9A7F057E00020003E3
:0D0FB9005391E35394E3C2937F01020F4E66
:10002E00EC4D6011E8497017ED33EC3304600DE4CC
:10003E00FCFFFEFD22E933E8330470F80202C01221
:10004E00028B58046009E4CC248150062850090222
:10005E0002CA2840030202C7C0E0EB4A7044B980CE
:10006E0006D0E0FB0202B6EF4E701CBD8008EBFF1F
:10007E00EAFEE9FD80EBE98DF0A4FEE5F002011742
:10008E00E9CDF9EAFEEBFFEF89F0A4FCE5F0CE89AD
:10009E00F0A42EFFE435F0CD89F0A42DFEE435F06A
:1000AE008067EF4E7005BD80D780C3EF8BF0A4AC98
:1000BE00F0EE8BF0A42CFCE435F0F8EF8AF0A42CD3
:1000CE00E5F038FCE433CB8DF0A42CFCE5F03BF8E6
:1000DE00EE8AF0A42CFCE5F038F8E433CF89F0A4D6
:1000EE002CFCE5F038CF3400CE89F0A42FFFE5F0DC
:1000FE003EFEE433C98DF0A42EFEE5F039CD8AF034
:10010E00A42FFFE5F03EFEE43DFD33D0E0FB5007AB
:10011E000BBB000F0202CAEC2CFCEF33FFEE33FEDA
:06012E00ED33FD0202A208
:100134000202CAEC5D046005E8590470030202C0BF
:1001440012028B580460F6EC4860F2EC7004FDFE79
:10015400FF22C860DB2481C85009C398600250069E
:100164000202C79850CAF582E9294B4A7005AB824E
:100174000202B675F0007C1A7880C3EF9BEE9AED0C
:1001840099400DC3EF9BFFEE9AFEED99FDE842F016
:10019400DC23ACF0D0E0FFD0E0FED0E0FDAB822069
:1001A400E7101BEB60BAEC2CFCEF33FFEE33FEEDF3
:1001B40033FD0202A2E803F830E705C0F075F00051
:1001C400EF2FFFEE33FEED33FD40B830E7C280AAD7
:1001D40074F8CC6480CCC86480C8F58204604FC3D2
:1001E400EB9FF5F0EA9E42F0E99D42F0E89C45F071
:1001F400603C501DE5825FFFE582D313CB5BCBF4FB
:100204002B5582FB50280ABA002409B90020088023
:100214001DE5825BFBE582D313CF5FCFF4C3132FBD
:100224005582FF50090EBE00050DBD00010CC3EB45
:100234009FF5F0EA9E42F0E99D42F0E89C45F060AB
:0902440007CC4820E701B3EC22CD
:10024D0075F020800E75F010800575F0087D007E2C
:10025D00007F003392D530D5031205C7EC33401023
:10026D00EF33FFEE33FEED33FDEC33FCD5F0ED2235
:0E027D00E5F0247EA2D513CC92E7CDCEFF2271
:10062000E5102451F8E2051022784E300702785187
:10063000E475F0011205E102056F2000EB7F2ED278
:10064000008018EF540F2490D43440D4FF30040BB2
:10065000EF24BFB41A0050032461FFE511600215B6
:10066000110514E5147002051330070D784EE4757A
:10067000F0011205E1EF0205B5020EDB7403D207AB
:100680008003E4C207F510784E1205F1E4F511F588
:1006900013F514E51160077F2012065B80F57512D3
:1006A000FFC201C200C202C203C205C206C20812D2
:1006B0000629FF700D3007057F0012066CAF14AEDF
:1006C0001322B4255FC2D5C204120629FF24D0B478
:1006D0000A00501A75F00A781130D50508B6FF01E6
:1006E00006C6A426F620D5047002D20380D924CFF2
:1006F000B41A00EF5004C2E5D204020958D20180B6
:10070000C6D20080C0D20280BCD2D580BAD20580C9
:10071000B47F2012065B2002077401B5110040F17E
:10072000120620FF12065B020693D208D2068095BD
:10073000120620FB120620FA120620F94A4B700618
:10074000794F7A0A7BFF20022EE511602A7E008E07
:100750008275830012058860060EEE651270F0C285
:10076000D5EBC0E0EAC0E0E9C0E0EE1209B8D0E0A5
:10077000F9D0E0FAD0E0FB12056FFF60AAEBC0E011
:10078000EAC0E0E9C0E012065BD0E02401F9D0E065
:100790003400FAD0E0FBE5120460DCD512D9808782
:1007A000D20280A212099B60F7E5127001041202C6
:1007B000D5A912600DE512600914F512120A42EF74
:1007C00060F3EA30E702F404C3995077EAF42512A3
:1007D0000430E701E404F512800D12099B60C1EAC0
:1007E000051225121202D5EA7864F230E701E425F9
:1007F0001204D51204200501141209B8E4C0E01255
:100800000A427864E2601320E70714F2120643807C
:100810002204F2D0E014C0E07F00120643E512602B
:100820000712063A1512800B30050312063AD0E083
:10083000020693D0E00480C512099B60A0E5120473
:100840001202D57864EAF2E5122005026001042460
:0C085000041209B874FF04C0E0120A4250
:10085C00120643E512200502600312063AD0E0B5F9
:10086C0012E87F4512064D7864E27F2B30E7047F57
:10087C002DF404C0E012065BD0E075F00A84C0F0E1
:10088C00120644D0E01206440206937910800279D5
:10089C0008C206C2088008D2D5790A8004790AC237
:1008AC00D5E512047002F512E4FAFDFEFF120620E3
:1008BC00FC7B08200113120620FD7B1030000A126D
:1008CC000620FE120620FF7B20EC3382D592D550F9
:1008DC0013C3E43000069FFFE49EFEE42001039D59
:1008EC00FDE49CFCE4CBF8C201EC700CCFCECDCC7B
:1008FC00E824F8F870F38017C3EF33FFEE33FEED06
:10090C0033FDEC33FCEB33FB994002FB0FD8E9EBE6
:10091C00300105F8D0E0C448B201C0E00AEC4D4EFD
:10092C004F78207B0070C2EAB5120040BCC0E012C8
:10093C0009BAD0F0D0E0200104C4C0E0C4B201C0B8
:10094C00F0120644D0F0D5F0EB0206931205FA072C
:10095C00305308975807014C06FD42089B4F08A3DB
:10096C004408A34907164308A95507DA4608384531
:10097C0007A4470A6F5007052D07092E072C2B07D4
:10098C000D23072A200A582A06C54800000724E52B
:10099C0012B4FF03751206120620FC120620FD127B
:1009AC000620FE120620FF785D020304790AA2D508
:1009BC00200314300509B910020404B9080104A27B
:1009CC00D52006025001042002689202B511005095
:1009DC0034C0E07F203003197F30A202720672050A
:1009EC00500F120A11C202C206C205C2087F308023
:1009FC000F300503E9C0E012065B300503D0E0F9C7
:100A0C00D0E0B511CC3005177F30B9100C12065B55
:100A1C007F583004077F788003B9080312065B30D7
:100A2C0002057F2D02065B7F202008F87F2B200615
:100A3C00F322920280CF7F00B407005005245DF8AA
:100A4C00E2FF22286E756C6C2900D2011206203050
:100A5C0001F8C201781130D50108F60206C52D50F7
:100A6C004349581206202403B405004001E4900ABF
:100A7C006A9312064C743A12064CD2037511040296
:020A8C000897C9
:10028B00E9D2E7C933E833F892D5EDD2E7CD33ECB9
:07029B0033FC5002B2D52232
:1002A200EC30E7100FBF000C0EBE00080DBD0004BD
:1002B2000BEB6014A2D5EB13FCED92E7FD2274FF69
:1002C200FCFDFEFF22E480F8A2D574FF13FC7D80C2
:0302D200E480EFD6
:1002D500F920E72824F950037907E4F42402FB18F0
:1002E500DBFDE224FB5014E9600DE4F218E204F2B0
:0F02F500B40A08E4F2D9F57401F20A22C2D52244
:10030400ED33EC3392D5FA602AB4FF33EDC2E77BC8
:10031400FF60067A037929E4227A03793220D5042E
:100324007A03792D224E614E002B494E46002D4909
:100334004E4600E47A08F208DAFC7B00740722E8EF
:10034400C0E0ECC0E0EDC0E0EEC0E0EFC0E0EA7574
:10035400F010A4CAABF075F04DA42BFBE435F0FC0F
:10036400EA2410FAEB34C5FBEC34D9FCEDC2E7FF08
:1003740075F056A4F42411C5F0F434C58FF0A42A02
:10038400E5F03BE43CF220E71412052FD0E0FFD067
:10039400E0FED0E0FDD0E0FC1201378014F404123A
:1003A400052FD0E0FFD0E0FED0E0FDD0E0FC12004D
:1003B4002ED0E0F8E2FAEDD2E7CD33EC332482FB21
:1003C400E4C3CF33CFCE33CECD33CD33DBF37B0792
:1003D40075F00A846004F2081B0AE5F0F2088FF055
:1003E400740AA4FFACF08EF0740AA42CFEACF05096
:1003F400010C8DF0740AA42CFDE435F0F208DBDE68
:0304040074072258
:100407000202C0E86480F8E933E83360110460F061
:10041700ED33EC337009E8FCE9FDEAFEEBFF22045B
:1004270060DED3EB9FEA9EE99DE8C2E78CF0C2F756
:1004370095F0400CE8CCF8E9CDF9EACEFAEBCFFB22
:1004470012028B85D0F05804700320D5B3E80470EE
:10045700075002B2D50202CA92D5EC0460F7E4CC89
:10046700C0E0C398F8603B94186008400DD0E0FBEB
:100477000202A2E4FBFAC9FC8028E830E406E4C9DA
:10048700FBE4CAFCE830E305E4C9CACBFCE854073F
:100497006010F8C3E913F9EA13FAEB13FBEC13FC4A
:1004A700D8F130F52FC3E49CFCEF9BFFEE9AFEEDED
:1004B70099FDD0E0FBEF4E4D4C701222DB03020298
:1004C700C7EC2CFCEF33FFEE33FEED33FDED30E7E9
:1004D700EB0202A2EF2BFFEE3AFEED39FDD0E0FB77
:1004E70050130BBB00030202CAED13FDEE13FEEF20
:0804F70013FFEC13FC0202A24A
:1004FF003F8000004120000042C80000447A000005
:10050F00461C400047C35000497424004B18968086
:10051F004CBEBC205A0E1BCA6753C21C749DC5AE7D
:10052F00FB60065407601C232312055DEB543860F3
:10053F000912054912055812002EECF8EDF9EEFAE2
:10054F00EFCB22EB12055880F1543803241C900492
:10055F00FFFE93FC0EEE93FD0EEE930ECE93FF2255
:100CE900020A8EE493A3F8E493A34003F68001F289
:100CF90008DFF48029E493A3F85407240CC8C3330C
:100D0900C4540F4420C8834004F456800146F6DFDA
:100D1900E4800B0102040810204080900F1EE47E3D
:100D2900019360BCA3FF543F30E509541FFEE493CF
:100D3900A360010ECF54C025E060A840B8E493A396
:100D4900FAE493A3F8E493A3C8C582C8CAC583CAC1
:100D5900F0A3C8C582C8CAC583CADFE9DEE780BE79
:010F360000BA
:10056F00BB010689828A83E0225002E722BBFE028A
:09057F00E32289828A83E49322BD
:10058800BB010CE58229F582E5833AF583E0225028
:1005980006E92582F8E622BBFE06E92582F8E22272
:0D05A800E58229F582E5833AF583E493228C
:1005B500BB010689828A83F0225002F722BBFE0125
:0205C500F3221F
:0E05C700C3E49FFFE49EFEE49DFDE49CFC2245
:0C05D500ECF208EDF208EEF208EFF22262
:1005E100FAE2FB0808E2F925F0F218E2CA3AF2222F
:0905F100EBF208EAF208E9F2223B
:1005FA00D083D082F8E4937012740193700DA3A390
:10060A0093F8740193F5828883E4737402936860A3
:06061A00EFA3A3A380DFA3
:100EDB00EFB40A07740D120EE6740A309811A89934
:100EEB00B8130CC2983098FDA899C298B811F63077
:070EFB0099FDC299F599224F
:00000001FF
